{
  "contractName": "Ballot",
  "abi": [
    {
      "inputs": [],
      "name": "chairperson",
      "outputs": [
        {
          "internalType": "address",
          "name": "",
          "type": "address"
        }
      ],
      "stateMutability": "view",
      "type": "function"
    },
    {
      "inputs": [
        {
          "internalType": "uint256",
          "name": "",
          "type": "uint256"
        }
      ],
      "name": "proposals",
      "outputs": [
        {
          "internalType": "bytes32",
          "name": "name",
          "type": "bytes32"
        },
        {
          "internalType": "uint256",
          "name": "voteCount",
          "type": "uint256"
        }
      ],
      "stateMutability": "view",
      "type": "function"
    },
    {
      "inputs": [
        {
          "internalType": "address",
          "name": "",
          "type": "address"
        }
      ],
      "name": "voters",
      "outputs": [
        {
          "internalType": "uint256",
          "name": "weight",
          "type": "uint256"
        },
        {
          "internalType": "bool",
          "name": "voted",
          "type": "bool"
        },
        {
          "internalType": "address",
          "name": "delegate",
          "type": "address"
        },
        {
          "internalType": "uint256",
          "name": "vote",
          "type": "uint256"
        }
      ],
      "stateMutability": "view",
      "type": "function"
    },
    {
      "inputs": [
        {
          "internalType": "bytes32[]",
          "name": "proposalNames",
          "type": "bytes32[]"
        }
      ],
      "name": "Ballot2",
      "outputs": [],
      "stateMutability": "nonpayable",
      "type": "function"
    },
    {
      "inputs": [
        {
          "internalType": "address",
          "name": "voter",
          "type": "address"
        }
      ],
      "name": "giveRightToVote",
      "outputs": [],
      "stateMutability": "nonpayable",
      "type": "function"
    },
    {
      "inputs": [
        {
          "internalType": "address",
          "name": "to",
          "type": "address"
        }
      ],
      "name": "delegate",
      "outputs": [],
      "stateMutability": "nonpayable",
      "type": "function"
    },
    {
      "inputs": [
        {
          "internalType": "uint256",
          "name": "proposal",
          "type": "uint256"
        }
      ],
      "name": "vote",
      "outputs": [],
      "stateMutability": "nonpayable",
      "type": "function"
    },
    {
      "inputs": [],
      "name": "winningProposal",
      "outputs": [
        {
          "internalType": "uint256",
          "name": "winningProposal_",
          "type": "uint256"
        }
      ],
      "stateMutability": "view",
      "type": "function"
    },
    {
      "inputs": [],
      "name": "winnerName",
      "outputs": [
        {
          "internalType": "bytes32",
          "name": "winnerName_",
          "type": "bytes32"
        }
      ],
      "stateMutability": "view",
      "type": "function"
    }
  ],
  "bytecode": "0x608060405234801561001057600080fd5b50610e90806100206000396000f3fe608060405234801561001057600080fd5b50600436106100935760003560e01c8063609ff1bd11610066578063609ff1bd1461011f5780639e7b8d611461013d578063a1a7a1e614610159578063a3ec138d14610175578063e2ba53f0146101a857610093565b80630121b93f14610098578063013cf08b146100b45780632e4176cf146100e55780635c19a95c14610103575b600080fd5b6100b260048036038101906100ad91906109c7565b6101c6565b005b6100ce60048036038101906100c991906109c7565b61028f565b6040516100dc929190610a1c565b60405180910390f35b6100ed6102c3565b6040516100fa9190610a86565b60405180910390f35b61011d60048036038101906101189190610acd565b6102e7565b005b6101276105df565b6040516101349190610afa565b60405180910390f35b61015760048036038101906101529190610acd565b610667565b005b610173600480360381019061016e9190610c9a565b6107b0565b005b61018f600480360381019061018a9190610acd565b6108ec565b60405161019f9493929190610cfe565b60405180910390f35b6101b0610949565b6040516101bd9190610d43565b60405180910390f35b6000600160003373ffffffffffffffffffffffffffffffffffffffff1673ffffffffffffffffffffffffffffffffffffffff16815260200190815260200160002090508060010160009054906101000a900460ff161561022557600080fd5b60018160010160006101000a81548160ff02191690831515021790555081816002018190555080600001546002838154811061026457610263610d5e565b5b906000526020600020906002020160010160008282546102849190610dbc565b925050819055505050565b6002818154811061029f57600080fd5b90600052602060002090600202016000915090508060000154908060010154905082565b60008054906101000a900473ffffffffffffffffffffffffffffffffffffffff1681565b6000600160003373ffffffffffffffffffffffffffffffffffffffff1673ffffffffffffffffffffffffffffffffffffffff16815260200190815260200160002090508060010160009054906101000a900460ff161561034657600080fd5b3373ffffffffffffffffffffffffffffffffffffffff168273ffffffffffffffffffffffffffffffffffffffff160361037e57600080fd5b5b600073ffffffffffffffffffffffffffffffffffffffff16600160008473ffffffffffffffffffffffffffffffffffffffff1673ffffffffffffffffffffffffffffffffffffffff16815260200190815260200160002060010160019054906101000a900473ffffffffffffffffffffffffffffffffffffffff1673ffffffffffffffffffffffffffffffffffffffff16146104b757600160008373ffffffffffffffffffffffffffffffffffffffff1673ffffffffffffffffffffffffffffffffffffffff16815260200190815260200160002060010160019054906101000a900473ffffffffffffffffffffffffffffffffffffffff1691503373ffffffffffffffffffffffffffffffffffffffff168273ffffffffffffffffffffffffffffffffffffffff16036104b257600080fd5b61037f565b60018160010160006101000a81548160ff021916908315150217905550818160010160016101000a81548173ffffffffffffffffffffffffffffffffffffffff021916908373ffffffffffffffffffffffffffffffffffffffff1602179055506000600160008473ffffffffffffffffffffffffffffffffffffffff1673ffffffffffffffffffffffffffffffffffffffff16815260200190815260200160002090508060010160009054906101000a900460ff16156105ba578160000154600282600201548154811061058e5761058d610d5e565b5b906000526020600020906002020160010160008282546105ae9190610dbc565b925050819055506105da565b81600001548160000160008282546105d29190610dbc565b925050819055505b505050565b6000806000905060005b60028054905081101561066257816002828154811061060b5761060a610d5e565b5b906000526020600020906002020160010154111561064f576002818154811061063757610636610d5e565b5b90600052602060002090600202016001015491508092505b808061065a90610e12565b9150506105e9565b505090565b60008054906101000a900473ffffffffffffffffffffffffffffffffffffffff1673ffffffffffffffffffffffffffffffffffffffff163373ffffffffffffffffffffffffffffffffffffffff1614801561070f5750600160008273ffffffffffffffffffffffffffffffffffffffff1673ffffffffffffffffffffffffffffffffffffffff16815260200190815260200160002060010160009054906101000a900460ff16155b801561075d57506000600160008373ffffffffffffffffffffffffffffffffffffffff1673ffffffffffffffffffffffffffffffffffffffff16815260200190815260200160002060000154145b61076657600080fd5b60018060008373ffffffffffffffffffffffffffffffffffffffff1673ffffffffffffffffffffffffffffffffffffffff1681526020019081526020016000206000018190555050565b336000806101000a81548173ffffffffffffffffffffffffffffffffffffffff021916908373ffffffffffffffffffffffffffffffffffffffff16021790555060018060008060009054906101000a900473ffffffffffffffffffffffffffffffffffffffff1673ffffffffffffffffffffffffffffffffffffffff1673ffffffffffffffffffffffffffffffffffffffff1681526020019081526020016000206000018190555060005b81518110156108e8576002604051806040016040528084848151811061088457610883610d5e565b5b60200260200101518152602001600081525090806001815401808255809150506001900390600052602060002090600202016000909190919091506000820151816000015560208201518160010155505080806108e090610e12565b91505061085b565b5050565b60016020528060005260406000206000915090508060000154908060010160009054906101000a900460ff16908060010160019054906101000a900473ffffffffffffffffffffffffffffffffffffffff16908060020154905084565b600060026109556105df565b8154811061096657610965610d5e565b5b906000526020600020906002020160000154905090565b6000604051905090565b600080fd5b600080fd5b6000819050919050565b6109a481610991565b81146109af57600080fd5b50565b6000813590506109c18161099b565b92915050565b6000602082840312156109dd576109dc610987565b5b60006109eb848285016109b2565b91505092915050565b6000819050919050565b610a07816109f4565b82525050565b610a1681610991565b82525050565b6000604082019050610a3160008301856109fe565b610a3e6020830184610a0d565b9392505050565b600073ffffffffffffffffffffffffffffffffffffffff82169050919050565b6000610a7082610a45565b9050919050565b610a8081610a65565b82525050565b6000602082019050610a9b6000830184610a77565b92915050565b610aaa81610a65565b8114610ab557600080fd5b50565b600081359050610ac781610aa1565b92915050565b600060208284031215610ae357610ae2610987565b5b6000610af184828501610ab8565b91505092915050565b6000602082019050610b0f6000830184610a0d565b92915050565b600080fd5b6000601f19601f8301169050919050565b7f4e487b7100000000000000000000000000000000000000000000000000000000600052604160045260246000fd5b610b6382610b1a565b810181811067ffffffffffffffff82111715610b8257610b81610b2b565b5b80604052505050565b6000610b9561097d565b9050610ba18282610b5a565b919050565b600067ffffffffffffffff821115610bc157610bc0610b2b565b5b602082029050602081019050919050565b600080fd5b610be0816109f4565b8114610beb57600080fd5b50565b600081359050610bfd81610bd7565b92915050565b6000610c16610c1184610ba6565b610b8b565b90508083825260208201905060208402830185811115610c3957610c38610bd2565b5b835b81811015610c625780610c4e8882610bee565b845260208401935050602081019050610c3b565b5050509392505050565b600082601f830112610c8157610c80610b15565b5b8135610c91848260208601610c03565b91505092915050565b600060208284031215610cb057610caf610987565b5b600082013567ffffffffffffffff811115610cce57610ccd61098c565b5b610cda84828501610c6c565b91505092915050565b60008115159050919050565b610cf881610ce3565b82525050565b6000608082019050610d136000830187610a0d565b610d206020830186610cef565b610d2d6040830185610a77565b610d3a6060830184610a0d565b95945050505050565b6000602082019050610d5860008301846109fe565b92915050565b7f4e487b7100000000000000000000000000000000000000000000000000000000600052603260045260246000fd5b7f4e487b7100000000000000000000000000000000000000000000000000000000600052601160045260246000fd5b6000610dc782610991565b9150610dd283610991565b9250827fffffffffffffffffffffffffffffffffffffffffffffffffffffffffffffffff03821115610e0757610e06610d8d565b5b828201905092915050565b6000610e1d82610991565b91507fffffffffffffffffffffffffffffffffffffffffffffffffffffffffffffffff8203610e4f57610e4e610d8d565b5b60018201905091905056fea2646970667358221220878ba6ba86f32eaa29888b8285735ee2f55843c05dbe9cf66b7e7cdcb733b21364736f6c634300080d0033",
  "immutableReferences": {},
  "source": "pragma solidity ^0.8.4;\n\n/// @title  .\ncontract Ballot {\n    //     \n    //   .\n    //     .\n    struct Voter {\n        uint weight; // weight    .\n        bool voted;  //    true,      .\n        address delegate; //   \n        uint vote;   //     \n    }\n\n    //     .\n    struct Proposal {\n        bytes32 name;   //   ( 32)\n        uint voteCount; //   \n    }\n\n    address public chairperson;\n\n    //     \n    // `Voter`    .\n    mapping(address => Voter) public voters;\n\n    //    `Proposal`  .\n    Proposal[] public proposals;\n\n    /// `proposalNames`       .\n    function Ballot2(bytes32[] memory proposalNames) public {\n        chairperson = msg.sender;\n        voters[chairperson].weight = 1;\n\n        //     ,\n        //       .\n        for (uint i = 0; i < proposalNames.length; i++) {\n            // `Proposal({...})` creates a temporary\n            // Proposal object and `proposals.push(...)`\n            // appends it to the end of `proposals`.\n            proposals.push(Proposal({\n                name: proposalNames[i],\n                voteCount: 0\n            }));\n        }\n    }\n\n    // `voter`      .\n    //  `chairperson`    .\n    function giveRightToVote(address voter) public {\n        // `require`  `false` ,\n        //     state\n        // Ether Balance .\n        //       .\n        //  ,\n        //       .\n        // (    )\n        require(\n            (msg.sender == chairperson) &&\n            !voters[voter].voted &&\n            (voters[voter].weight == 0)\n        );\n        voters[voter].weight = 1;\n    }\n\n    /// `to`    .\n    function delegate(address to) public {\n        //  .\n        Voter storage sender = voters[msg.sender];\n        require(!sender.voted);\n\n        //    .\n        require(to != msg.sender);\n\n        // `to`   delegation .\n        //      ,\n        //      \n        //      .\n        //   (delegation)  ,\n        //     \n        //    \"\"  .\n        while (voters[to].delegate != address(0)) {\n            to = voters[to].delegate;\n\n            //  delegation      .\n            require(to != msg.sender);\n        }\n\n        // `sender`  ,\n        // `voters[msg.sender].voted`  .\n        sender.voted = true;\n        sender.delegate = to;\n        Voter storage delegate_ = voters[to];\n        if (delegate_.voted) {\n            //    ,\n            //     \n            proposals[delegate_.vote].voteCount += sender.weight;\n        } else {\n            //    ,\n            // weight .\n            delegate_.weight += sender.weight;\n        }\n    }\n\n    /// (   )\n    /// `proposals[proposal].name`   .\n    function vote(uint proposal) public {\n        Voter storage sender = voters[msg.sender];\n        require(!sender.voted);\n        sender.voted = true;\n        sender.vote = proposal;\n\n        //  `proposal`    \n        //  throw     .\n        proposals[proposal].voteCount += sender.weight;\n    }\n\n    /// @dev       .\n    function winningProposal() public view\n            returns (uint winningProposal_)\n    {\n        uint winningVoteCount = 0;\n        for (uint p = 0; p < proposals.length; p++) {\n            if (proposals[p].voteCount > winningVoteCount) {\n                winningVoteCount = proposals[p].voteCount;\n                winningProposal_ = p;\n            }\n        }\n    }\n\n    // winningProposal()  \n    //     index  \n    //   .\n    function winnerName() public view\n            returns (bytes32 winnerName_)\n    {\n        winnerName_ = proposals[winningProposal()].name;\n    }\n}",
  "sourcePath": "/Users/hangyeonghyeon/Desktop/Voting/contracts/Voting.sol",
  "compiler": {
    "name": "solc",
    "version": "0.8.13+commit.abaa5c0e.Emscripten.clang"
  },
  "schemaVersion": "3.4.6",
  "updatedAt": "2022-05-26T13:44:58.322Z",
  "devdoc": {
    "kind": "dev",
    "methods": {
      "winningProposal()": {
        "details": "      ."
      }
    },
    "title": " .",
    "version": 1
  },
  "userdoc": {
    "kind": "user",
    "methods": {
      "Ballot2(bytes32[])": {
        "notice": "`proposalNames`       ."
      },
      "delegate(address)": {
        "notice": "`to`    ."
      },
      "vote(uint256)": {
        "notice": "(   ) `proposals[proposal].name`   ."
      }
    },
    "version": 1
  }
}